{
  "address": "0xF60be104fB98bDC81E3B0B9525C715a041f60c91",
  "abi": [
    {
      "inputs": [
        {
          "internalType": "enum ClassLibrary.PrimaryClass",
          "name": "primary",
          "type": "ClassLibrary.PrimaryClass"
        },
        {
          "internalType": "enum ClassLibrary.SecondaryClass",
          "name": "secondary",
          "type": "ClassLibrary.SecondaryClass"
        }
      ],
      "name": "getMarkers",
      "outputs": [
        {
          "internalType": "enum StatsLibrary.Stats[2]",
          "name": "",
          "type": "StatsLibrary.Stats[2]"
        }
      ],
      "stateMutability": "pure",
      "type": "function"
    },
    {
      "inputs": [
        {
          "internalType": "enum ClassLibrary.PrimaryClass",
          "name": "primary",
          "type": "ClassLibrary.PrimaryClass"
        }
      ],
      "name": "getOptions",
      "outputs": [
        {
          "internalType": "uint256[3]",
          "name": "",
          "type": "uint256[3]"
        }
      ],
      "stateMutability": "pure",
      "type": "function"
    }
  ],
  "transactionHash": "0x0a5e26556c0866378c41b8eab132876f77c91a2f8b719600036ec33f861772d1",
  "args": [],
  "numDeployments": 1,
  "solcInputHash": "0e3068ca49787a845c92576008b22d6c",
  "bytecode": "0x610edf610053600b82828239805160001a607314610046577f4e487b7100000000000000000000000000000000000000000000000000000000600052600060045260246000fd5b30600052607381538281f3fe73000000000000000000000000000000000000000030146080604052600436106100405760003560e01c806359eacb0414610045578063fa5ab32e14610075575b600080fd5b61005f600480360381019061005a9190610bea565b6100a5565b60405161006c9190610ccc565b60405180910390f35b61008f600480360381019061008a9190610d0c565b6102a8565b60405161009c9190610e5f565b60405180910390f35b6100ad610b37565b60006040518060a0016040528060405180606001604052806000600e8111156100d9576100d8610d6c565b5b81526020016001600e8111156100f2576100f1610d6c565b5b81526020016002600e81111561010b5761010a610d6c565b5b815250815260200160405180606001604052806003600e81111561013257610131610d6c565b5b81526020016004600e81111561014b5761014a610d6c565b5b81526020016005600e81111561016457610163610d6c565b5b815250815260200160405180606001604052806006600e81111561018b5761018a610d6c565b5b81526020016007600e8111156101a4576101a3610d6c565b5b81526020016008600e8111156101bd576101bc610d6c565b5b815250815260200160405180606001604052806009600e8111156101e4576101e3610d6c565b5b8152602001600a600e8111156101fd576101fc610d6c565b5b8152602001600e8081111561021557610214610d6c565b5b81525081526020016040518060600160405280600b600e81111561023c5761023b610d6c565b5b8152602001600c600e81111561025557610254610d6c565b5b8152602001600d600e81111561026e5761026d610d6c565b5b81525081525090508083600581111561028a57610289610d6c565b5b6005811061029b5761029a610e7a565b5b6020020151915050919050565b6102b0610b59565b6005808111156102c3576102c2610d6c565b5b8360058111156102d6576102d5610d6c565b5b0361033f5760405180604001604052806006808111156102f9576102f8610d6c565b5b600681111561030b5761030a610d6c565b5b815260200160068081111561032357610322610d6c565b5b600681111561033557610334610d6c565b5b8152509050610b31565b610347610b7b565b6000816000600581111561035e5761035d610d6c565b5b6005811061036f5761036e610e7a565b5b6020020190600681111561038657610385610d6c565b5b9081600681111561039a57610399610d6c565b5b81525050600381600160058111156103b5576103b4610d6c565b5b600581106103c6576103c5610e7a565b5b602002019060068111156103dd576103dc610d6c565b5b908160068111156103f1576103f0610d6c565b5b815250506001816002600581111561040c5761040b610d6c565b5b6005811061041d5761041c610e7a565b5b6020020190600681111561043457610433610d6c565b5b9081600681111561044857610447610d6c565b5b815250506002816003600581111561046357610462610d6c565b5b6005811061047457610473610e7a565b5b6020020190600681111561048b5761048a610d6c565b5b9081600681111561049f5761049e610d6c565b5b81525050600481600460058111156104ba576104b9610d6c565b5b600581106104cb576104ca610e7a565b5b602002019060068111156104e2576104e1610d6c565b5b908160068111156104f6576104f5610d6c565b5b81525050600e8081111561050d5761050c610d6c565b5b83600e8111156105205761051f610d6c565b5b036105b35760405180604001604052808286600581111561054457610543610d6c565b5b6005811061055557610554610e7a565b5b6020020151600681111561056c5761056b610d6c565b5b600681111561057e5761057d610d6c565b5b815260200160068081111561059657610595610d6c565b5b60068111156105a8576105a7610d6c565b5b815250915050610b31565b6105bb610b9d565b6001816000600e8111156105d2576105d1610d6c565b5b600e81106105e3576105e2610e7a565b5b602002019060068111156105fa576105f9610d6c565b5b9081600681111561060e5761060d610d6c565b5b815250506002816001600e81111561062957610628610d6c565b5b600e811061063a57610639610e7a565b5b6020020190600681111561065157610650610d6c565b5b9081600681111561066557610664610d6c565b5b815250506005816002600e8111156106805761067f610d6c565b5b600e811061069157610690610e7a565b5b602002019060068111156106a8576106a7610d6c565b5b908160068111156106bc576106bb610d6c565b5b815250506004816003600e8111156106d7576106d6610d6c565b5b600e81106106e8576106e7610e7a565b5b602002019060068111156106ff576106fe610d6c565b5b9081600681111561071357610712610d6c565b5b815250506002816004600e81111561072e5761072d610d6c565b5b600e811061073f5761073e610e7a565b5b6020020190600681111561075657610755610d6c565b5b9081600681111561076a57610769610d6c565b5b815250506005816005600e81111561078557610784610d6c565b5b600e811061079657610795610e7a565b5b602002019060068111156107ad576107ac610d6c565b5b908160068111156107c1576107c0610d6c565b5b815250506000816006600e8111156107dc576107db610d6c565b5b600e81106107ed576107ec610e7a565b5b6020020190600681111561080457610803610d6c565b5b9081600681111561081857610817610d6c565b5b815250506004816007600e81111561083357610832610d6c565b5b600e811061084457610843610e7a565b5b6020020190600681111561085b5761085a610d6c565b5b9081600681111561086f5761086e610d6c565b5b815250506005816008600e81111561088a57610889610d6c565b5b600e811061089b5761089a610e7a565b5b602002019060068111156108b2576108b1610d6c565b5b908160068111156108c6576108c5610d6c565b5b815250506000816009600e8111156108e1576108e0610d6c565b5b600e81106108f2576108f1610e7a565b5b6020020190600681111561090957610908610d6c565b5b9081600681111561091d5761091c610d6c565b5b81525050600381600a600e81111561093857610937610d6c565b5b600e811061094957610948610e7a565b5b602002019060068111156109605761095f610d6c565b5b9081600681111561097457610973610d6c565b5b81525050600081600b600e81111561098f5761098e610d6c565b5b600e81106109a05761099f610e7a565b5b602002019060068111156109b7576109b6610d6c565b5b908160068111156109cb576109ca610d6c565b5b81525050600381600c600e8111156109e6576109e5610d6c565b5b600e81106109f7576109f6610e7a565b5b60200201906006811115610a0e57610a0d610d6c565b5b90816006811115610a2257610a21610d6c565b5b81525050600581600d600e811115610a3d57610a3c610d6c565b5b600e8110610a4e57610a4d610e7a565b5b60200201906006811115610a6557610a64610d6c565b5b90816006811115610a7957610a78610d6c565b5b81525050604051806040016040528083876005811115610a9c57610a9b610d6c565b5b60058110610aad57610aac610e7a565b5b60200201516006811115610ac457610ac3610d6c565b5b6006811115610ad657610ad5610d6c565b5b81526020018286600e811115610aef57610aee610d6c565b5b600e8110610b0057610aff610e7a565b5b60200201516006811115610b1757610b16610d6c565b5b6006811115610b2957610b28610d6c565b5b815250925050505b92915050565b6040518060600160405280600390602082028036833780820191505090505090565b6040518060400160405280600290602082028036833780820191505090505090565b6040518060a00160405280600590602082028036833780820191505090505090565b604051806101c00160405280600e90602082028036833780820191505090505090565b600080fd5b60068110610bd257600080fd5b50565b600081359050610be481610bc5565b92915050565b600060208284031215610c0057610bff610bc0565b5b6000610c0e84828501610bd5565b91505092915050565b600060039050919050565b600081905092915050565b6000819050919050565b6000819050919050565b610c4a81610c37565b82525050565b6000610c5c8383610c41565b60208301905092915050565b6000602082019050919050565b610c7e81610c17565b610c888184610c22565b9250610c9382610c2d565b8060005b83811015610cc4578151610cab8782610c50565b9650610cb683610c68565b925050600181019050610c97565b505050505050565b6000606082019050610ce16000830184610c75565b92915050565b600f8110610cf457600080fd5b50565b600081359050610d0681610ce7565b92915050565b60008060408385031215610d2357610d22610bc0565b5b6000610d3185828601610bd5565b9250506020610d4285828601610cf7565b9150509250929050565b600060029050919050565b600081905092915050565b6000819050919050565b7f4e487b7100000000000000000000000000000000000000000000000000000000600052602160045260246000fd5b60078110610dac57610dab610d6c565b5b50565b6000819050610dbd82610d9b565b919050565b6000610dcd82610daf565b9050919050565b610ddd81610dc2565b82525050565b6000610def8383610dd4565b60208301905092915050565b6000602082019050919050565b610e1181610d4c565b610e1b8184610d57565b9250610e2682610d62565b8060005b83811015610e57578151610e3e8782610de3565b9650610e4983610dfb565b925050600181019050610e2a565b505050505050565b6000604082019050610e746000830184610e08565b92915050565b7f4e487b7100000000000000000000000000000000000000000000000000000000600052603260045260246000fdfea26469706673582212202393bc16a99e055397d1a89d0ecf6adac1b7f3d8151ad115e600f9a7a66a66f864736f6c63430008100033",
  "devdoc": {
    "kind": "dev",
    "methods": {},
    "version": 1
  },
  "userdoc": {
    "kind": "user",
    "methods": {},
    "version": 1
  },
  "storageLayout": {
    "storage": [],
    "types": null
  }
}