{
  "address": "0x4c64D96ca5Ed86d878DD574D034A396ffFF592a7",
  "abi": [
    {
      "inputs": [],
      "stateMutability": "nonpayable",
      "type": "constructor"
    },
    {
      "inputs": [
        {
          "internalType": "address",
          "name": "guild",
          "type": "address"
        }
      ],
      "name": "IGuildRegistry_AlreadyMemberOfAnotherGuild",
      "type": "error"
    },
    {
      "inputs": [],
      "name": "IGuildRegistry_GuildAlreadyExists",
      "type": "error"
    },
    {
      "inputs": [],
      "name": "IGuildRegistry_GuildAlreadyRegistered",
      "type": "error"
    },
    {
      "inputs": [],
      "name": "IGuildRegistry_GuildDoesntExist",
      "type": "error"
    },
    {
      "inputs": [],
      "name": "IGuildRegistry_OnlyAllowedForGuilds",
      "type": "error"
    },
    {
      "inputs": [],
      "name": "IGuildRegistry_OnlyAllowedForLeader",
      "type": "error"
    },
    {
      "anonymous": false,
      "inputs": [
        {
          "indexed": true,
          "internalType": "address",
          "name": "candidate",
          "type": "address"
        },
        {
          "indexed": true,
          "internalType": "address",
          "name": "guild",
          "type": "address"
        },
        {
          "indexed": true,
          "internalType": "enum IGuildRegistry.GuildEventType",
          "name": "eventType",
          "type": "uint8"
        }
      ],
      "name": "GuildRegistry_GuildEvent",
      "type": "event"
    },
    {
      "anonymous": false,
      "inputs": [
        {
          "indexed": true,
          "internalType": "address",
          "name": "previousOwner",
          "type": "address"
        },
        {
          "indexed": true,
          "internalType": "address",
          "name": "newOwner",
          "type": "address"
        }
      ],
      "name": "OwnershipTransferred",
      "type": "event"
    },
    {
      "inputs": [
        {
          "internalType": "address",
          "name": "guild",
          "type": "address"
        }
      ],
      "name": "accept",
      "outputs": [],
      "stateMutability": "nonpayable",
      "type": "function"
    },
    {
      "inputs": [
        {
          "internalType": "address",
          "name": "user",
          "type": "address"
        }
      ],
      "name": "isMemberOfAnyGuild",
      "outputs": [
        {
          "internalType": "bool",
          "name": "",
          "type": "bool"
        },
        {
          "internalType": "address",
          "name": "",
          "type": "address"
        }
      ],
      "stateMutability": "view",
      "type": "function"
    },
    {
      "inputs": [],
      "name": "owner",
      "outputs": [
        {
          "internalType": "address",
          "name": "",
          "type": "address"
        }
      ],
      "stateMutability": "view",
      "type": "function"
    },
    {
      "inputs": [],
      "name": "register",
      "outputs": [],
      "stateMutability": "nonpayable",
      "type": "function"
    },
    {
      "inputs": [
        {
          "internalType": "address",
          "name": "candidate",
          "type": "address"
        }
      ],
      "name": "registerMember",
      "outputs": [],
      "stateMutability": "nonpayable",
      "type": "function"
    },
    {
      "inputs": [],
      "name": "renounceOwnership",
      "outputs": [],
      "stateMutability": "nonpayable",
      "type": "function"
    },
    {
      "inputs": [
        {
          "internalType": "uint256",
          "name": "",
          "type": "uint256"
        }
      ],
      "name": "s_guilds",
      "outputs": [
        {
          "internalType": "address",
          "name": "",
          "type": "address"
        }
      ],
      "stateMutability": "view",
      "type": "function"
    },
    {
      "inputs": [
        {
          "internalType": "address",
          "name": "",
          "type": "address"
        }
      ],
      "name": "s_members",
      "outputs": [
        {
          "internalType": "address",
          "name": "",
          "type": "address"
        }
      ],
      "stateMutability": "view",
      "type": "function"
    },
    {
      "inputs": [
        {
          "internalType": "address",
          "name": "newOwner",
          "type": "address"
        }
      ],
      "name": "transferOwnership",
      "outputs": [],
      "stateMutability": "nonpayable",
      "type": "function"
    },
    {
      "inputs": [],
      "name": "unregister",
      "outputs": [],
      "stateMutability": "nonpayable",
      "type": "function"
    },
    {
      "inputs": [
        {
          "internalType": "address",
          "name": "member",
          "type": "address"
        }
      ],
      "name": "unregisterMember",
      "outputs": [],
      "stateMutability": "nonpayable",
      "type": "function"
    }
  ],
  "transactionHash": "0x9c3bfc191297a3a481b549dc22b3b3f5d58542e1140f51f68287d7f85983e435",
  "args": [],
  "numDeployments": 1,
  "solcInputHash": "f51cf4fddb31e9227b5ff158431bd333",
  "bytecode": "0x6080604052600060045534801561001557600080fd5b5061003261002761003760201b60201c565b61003f60201b60201c565b610103565b600033905090565b60008060009054906101000a900473ffffffffffffffffffffffffffffffffffffffff169050816000806101000a81548173ffffffffffffffffffffffffffffffffffffffff021916908373ffffffffffffffffffffffffffffffffffffffff1602179055508173ffffffffffffffffffffffffffffffffffffffff168173ffffffffffffffffffffffffffffffffffffffff167f8be0079c531659141344cd1fd0a4f28419497f9722a3daafe3b4186f6b6457e060405160405180910390a35050565b611cbb806101126000396000f3fe608060405234801561001057600080fd5b50600436106100a95760003560e01c80639f005920116100715780639f00592014610140578063da555e8b1461015c578063e79a198f1461018d578063f2fde38b14610197578063fc45f976146101b3578063fcb4888e146101cf576100a9565b80631aa3a008146100ae57806345b89fb1146100b857806365b26b5f146100e8578063715018a6146101185780638da5cb5b14610122575b600080fd5b6100b66101eb565b005b6100d260048036038101906100cd919061179b565b6105a3565b6040516100df91906117d7565b60405180910390f35b61010260048036038101906100fd9190611828565b6105d6565b60405161010f91906117d7565b60405180910390f35b610120610615565b005b61012a610629565b60405161013791906117d7565b60405180910390f35b61015a6004803603810190610155919061179b565b610652565b005b6101766004803603810190610171919061179b565b610a00565b604051610184929190611870565b60405180910390f35b610195610b74565b005b6101b160048036038101906101ac919061179b565b610eb4565b005b6101cd60048036038101906101c8919061179b565b610f37565b005b6101e960048036038101906101e4919061179b565b6111f2565b005b600280548060200260200160405190810160405280929190818152602001828054801561026d57602002820191906000526020600020905b8160009054906101000a900473ffffffffffffffffffffffffffffffffffffffff1673ffffffffffffffffffffffffffffffffffffffff1681526020019060010190808311610223575b505050505073fDFf39F9E06dFEBd1d9C4592b600c91211C3f888633da80d669091336040518363ffffffff1660e01b81526004016102ac929190611966565b602060405180830381865af41580156102c9573d6000803e3d6000fd5b505050506040513d601f19601f820116820180604052508101906102ed91906119c2565b610323576040517fafa6472c00000000000000000000000000000000000000000000000000000000815260040160405180910390fd5b60018054806020026020016040519081016040528092919081815260200182805480156103a557602002820191906000526020600020905b8160009054906101000a900473ffffffffffffffffffffffffffffffffffffffff1673ffffffffffffffffffffffffffffffffffffffff168152602001906001019080831161035b575b505050505073fDFf39F9E06dFEBd1d9C4592b600c91211C3f888633da80d669091336040518363ffffffff1660e01b81526004016103e4929190611966565b602060405180830381865af4158015610401573d6000803e3d6000fd5b505050506040513d601f19601f8201168201806040525081019061042591906119c2565b1561045c576040517f2784928f00000000000000000000000000000000000000000000000000000000815260040160405180910390fd5b6001339080600181540180825580915050600190039060005260206000200160009091909190916101000a81548173ffffffffffffffffffffffffffffffffffffffff021916908373ffffffffffffffffffffffffffffffffffffffff16021790555060003373ffffffffffffffffffffffffffffffffffffffff16634c051f146040518163ffffffff1660e01b8152600401602060405180830381865afa15801561050c573d6000803e3d6000fd5b505050506040513d601f19601f820116820180604052508101906105309190611a04565b90506003600581111561054657610545611a31565b5b3373ffffffffffffffffffffffffffffffffffffffff168273ffffffffffffffffffffffffffffffffffffffff167f327ed17c47df1d644d3374097f81f120a1633b66818319224cec38b9375be85460405160405180910390a450565b60036020528060005260406000206000915054906101000a900473ffffffffffffffffffffffffffffffffffffffff1681565b600281815481106105e657600080fd5b906000526020600020016000915054906101000a900473ffffffffffffffffffffffffffffffffffffffff1681565b61061d6114ee565b610627600061156c565b565b60008060009054906101000a900473ffffffffffffffffffffffffffffffffffffffff16905090565b61065a6114ee565b60028054806020026020016040519081016040528092919081815260200182805480156106dc57602002820191906000526020600020905b8160009054906101000a900473ffffffffffffffffffffffffffffffffffffffff1673ffffffffffffffffffffffffffffffffffffffff1681526020019060010190808311610692575b505050505073fDFf39F9E06dFEBd1d9C4592b600c91211C3f888633da80d669091836040518363ffffffff1660e01b815260040161071b929190611966565b602060405180830381865af4158015610738573d6000803e3d6000fd5b505050506040513d601f19601f8201168201806040525081019061075c91906119c2565b15610793576040517f0274f88000000000000000000000000000000000000000000000000000000000815260040160405180910390fd5b600080600180548060200260200160405190810160405280929190818152602001828054801561081857602002820191906000526020600020905b8160009054906101000a900473ffffffffffffffffffffffffffffffffffffffff1673ffffffffffffffffffffffffffffffffffffffff16815260200190600101908083116107ce575b505050505073fDFf39F9E06dFEBd1d9C4592b600c91211C3f888639fce5c8e9091856040518363ffffffff1660e01b8152600401610857929190611966565b6040805180830381865af4158015610873573d6000803e3d6000fd5b505050506040513d601f19601f820116820180604052508101906108979190611a75565b9150915081156108b6576108b581600161163090919063ffffffff16565b5b6002839080600181540180825580915050600190039060005260206000200160009091909190916101000a81548173ffffffffffffffffffffffffffffffffffffffff021916908373ffffffffffffffffffffffffffffffffffffffff16021790555060008373ffffffffffffffffffffffffffffffffffffffff16634c051f146040518163ffffffff1660e01b8152600401602060405180830381865afa158015610966573d6000803e3d6000fd5b505050506040513d601f19601f8201168201806040525081019061098a9190611a04565b9050600260058111156109a05761099f611a31565b5b8473ffffffffffffffffffffffffffffffffffffffff168273ffffffffffffffffffffffffffffffffffffffff167f327ed17c47df1d644d3374097f81f120a1633b66818319224cec38b9375be85460405160405180910390a450505050565b6000806000600360008573ffffffffffffffffffffffffffffffffffffffff1673ffffffffffffffffffffffffffffffffffffffff16815260200190815260200160002060009054906101000a900473ffffffffffffffffffffffffffffffffffffffff1690506002805480602002602001604051908101604052809291908181526020018280548015610ae957602002820191906000526020600020905b8160009054906101000a900473ffffffffffffffffffffffffffffffffffffffff1673ffffffffffffffffffffffffffffffffffffffff1681526020019060010190808311610a9f575b505050505073fDFf39F9E06dFEBd1d9C4592b600c91211C3f888633da80d669091836040518363ffffffff1660e01b8152600401610b28929190611966565b602060405180830381865af4158015610b45573d6000803e3d6000fd5b505050506040513d601f19601f82011682018060405250810190610b6991906119c2565b819250925050915091565b6002805480602002602001604051908101604052809291908181526020018280548015610bf657602002820191906000526020600020905b8160009054906101000a900473ffffffffffffffffffffffffffffffffffffffff1673ffffffffffffffffffffffffffffffffffffffff1681526020019060010190808311610bac575b505050505073fDFf39F9E06dFEBd1d9C4592b600c91211C3f888633da80d669091336040518363ffffffff1660e01b8152600401610c35929190611966565b602060405180830381865af4158015610c52573d6000803e3d6000fd5b505050506040513d601f19601f82011682018060405250810190610c7691906119c2565b610cac576040517fafa6472c00000000000000000000000000000000000000000000000000000000815260040160405180910390fd5b6000806002805480602002602001604051908101604052809291908181526020018280548015610d3157602002820191906000526020600020905b8160009054906101000a900473ffffffffffffffffffffffffffffffffffffffff1673ffffffffffffffffffffffffffffffffffffffff1681526020019060010190808311610ce7575b505050505073fDFf39F9E06dFEBd1d9C4592b600c91211C3f888639fce5c8e9091336040518363ffffffff1660e01b8152600401610d70929190611966565b6040805180830381865af4158015610d8c573d6000803e3d6000fd5b505050506040513d601f19601f82011682018060405250810190610db09190611a75565b915091508115610dcf57610dce81600261163090919063ffffffff16565b5b60003373ffffffffffffffffffffffffffffffffffffffff16634c051f146040518163ffffffff1660e01b8152600401602060405180830381865afa158015610e1c573d6000803e3d6000fd5b505050506040513d601f19601f82011682018060405250810190610e409190611a04565b9050600580811115610e5557610e54611a31565b5b3373ffffffffffffffffffffffffffffffffffffffff168273ffffffffffffffffffffffffffffffffffffffff167f327ed17c47df1d644d3374097f81f120a1633b66818319224cec38b9375be85460405160405180910390a4505050565b610ebc6114ee565b600073ffffffffffffffffffffffffffffffffffffffff168173ffffffffffffffffffffffffffffffffffffffff1603610f2b576040517f08c379a0000000000000000000000000000000000000000000000000000000008152600401610f2290611b38565b60405180910390fd5b610f348161156c565b50565b6002805480602002602001604051908101604052809291908181526020018280548015610fb957602002820191906000526020600020905b8160009054906101000a900473ffffffffffffffffffffffffffffffffffffffff1673ffffffffffffffffffffffffffffffffffffffff1681526020019060010190808311610f6f575b505050505073fDFf39F9E06dFEBd1d9C4592b600c91211C3f888633da80d669091336040518363ffffffff1660e01b8152600401610ff8929190611966565b602060405180830381865af4158015611015573d6000803e3d6000fd5b505050506040513d601f19601f8201168201806040525081019061103991906119c2565b61106f576040517fafa6472c00000000000000000000000000000000000000000000000000000000815260040160405180910390fd5b3373ffffffffffffffffffffffffffffffffffffffff16600360008373ffffffffffffffffffffffffffffffffffffffff1673ffffffffffffffffffffffffffffffffffffffff16815260200190815260200160002060009054906101000a900473ffffffffffffffffffffffffffffffffffffffff1673ffffffffffffffffffffffffffffffffffffffff1603611181576000600360008373ffffffffffffffffffffffffffffffffffffffff1673ffffffffffffffffffffffffffffffffffffffff16815260200190815260200160002060006101000a81548173ffffffffffffffffffffffffffffffffffffffff021916908373ffffffffffffffffffffffffffffffffffffffff1602179055505b6004600581111561119557611194611a31565b5b3373ffffffffffffffffffffffffffffffffffffffff168273ffffffffffffffffffffffffffffffffffffffff167f327ed17c47df1d644d3374097f81f120a1633b66818319224cec38b9375be85460405160405180910390a450565b600280548060200260200160405190810160405280929190818152602001828054801561127457602002820191906000526020600020905b8160009054906101000a900473ffffffffffffffffffffffffffffffffffffffff1673ffffffffffffffffffffffffffffffffffffffff168152602001906001019080831161122a575b505050505073fDFf39F9E06dFEBd1d9C4592b600c91211C3f888633da80d669091336040518363ffffffff1660e01b81526004016112b3929190611966565b602060405180830381865af41580156112d0573d6000803e3d6000fd5b505050506040513d601f19601f820116820180604052508101906112f491906119c2565b61132a576040517fafa6472c00000000000000000000000000000000000000000000000000000000815260040160405180910390fd5b60008061133683610a00565b91509150811561137d57806040517fb9a153c000000000000000000000000000000000000000000000000000000000815260040161137491906117d7565b60405180910390fd5b3373ffffffffffffffffffffffffffffffffffffffff1663a230c524846040518263ffffffff1660e01b81526004016113b691906117d7565b602060405180830381865afa1580156113d3573d6000803e3d6000fd5b505050506040513d601f19601f820116820180604052508101906113f791906119c2565b1561147b5733600360008573ffffffffffffffffffffffffffffffffffffffff1673ffffffffffffffffffffffffffffffffffffffff16815260200190815260200160002060006101000a81548173ffffffffffffffffffffffffffffffffffffffff021916908373ffffffffffffffffffffffffffffffffffffffff1602179055505b6001600581111561148f5761148e611a31565b5b3373ffffffffffffffffffffffffffffffffffffffff168473ffffffffffffffffffffffffffffffffffffffff167f327ed17c47df1d644d3374097f81f120a1633b66818319224cec38b9375be85460405160405180910390a4505050565b6114f6611730565b73ffffffffffffffffffffffffffffffffffffffff16611514610629565b73ffffffffffffffffffffffffffffffffffffffff161461156a576040517f08c379a000000000000000000000000000000000000000000000000000000000815260040161156190611ba4565b60405180910390fd5b565b60008060009054906101000a900473ffffffffffffffffffffffffffffffffffffffff169050816000806101000a81548173ffffffffffffffffffffffffffffffffffffffff021916908373ffffffffffffffffffffffffffffffffffffffff1602179055508173ffffffffffffffffffffffffffffffffffffffff168173ffffffffffffffffffffffffffffffffffffffff167f8be0079c531659141344cd1fd0a4f28419497f9722a3daafe3b4186f6b6457e060405160405180910390a35050565b818054905081101561172c57816001838054905061164e9190611bf3565b8154811061165f5761165e611c27565b5b9060005260206000200160009054906101000a900473ffffffffffffffffffffffffffffffffffffffff1682828154811061169d5761169c611c27565b5b9060005260206000200160006101000a81548173ffffffffffffffffffffffffffffffffffffffff021916908373ffffffffffffffffffffffffffffffffffffffff160217905550818054806116f6576116f5611c56565b5b6001900381819060005260206000200160006101000a81549073ffffffffffffffffffffffffffffffffffffffff021916905590555b5050565b600033905090565b600080fd5b600073ffffffffffffffffffffffffffffffffffffffff82169050919050565b60006117688261173d565b9050919050565b6117788161175d565b811461178357600080fd5b50565b6000813590506117958161176f565b92915050565b6000602082840312156117b1576117b0611738565b5b60006117bf84828501611786565b91505092915050565b6117d18161175d565b82525050565b60006020820190506117ec60008301846117c8565b92915050565b6000819050919050565b611805816117f2565b811461181057600080fd5b50565b600081359050611822816117fc565b92915050565b60006020828403121561183e5761183d611738565b5b600061184c84828501611813565b91505092915050565b60008115159050919050565b61186a81611855565b82525050565b60006040820190506118856000830185611861565b61189260208301846117c8565b9392505050565b600081519050919050565b600082825260208201905092915050565b6000819050602082019050919050565b6118ce8161175d565b82525050565b60006118e083836118c5565b60208301905092915050565b6000602082019050919050565b600061190482611899565b61190e81856118a4565b9350611919836118b5565b8060005b8381101561194a57815161193188826118d4565b975061193c836118ec565b92505060018101905061191d565b5085935050505092915050565b6119608161175d565b82525050565b6000604082019050818103600083015261198081856118f9565b905061198f6020830184611957565b9392505050565b61199f81611855565b81146119aa57600080fd5b50565b6000815190506119bc81611996565b92915050565b6000602082840312156119d8576119d7611738565b5b60006119e6848285016119ad565b91505092915050565b6000815190506119fe8161176f565b92915050565b600060208284031215611a1a57611a19611738565b5b6000611a28848285016119ef565b91505092915050565b7f4e487b7100000000000000000000000000000000000000000000000000000000600052602160045260246000fd5b600081519050611a6f816117fc565b92915050565b60008060408385031215611a8c57611a8b611738565b5b6000611a9a858286016119ad565b9250506020611aab85828601611a60565b9150509250929050565b600082825260208201905092915050565b7f4f776e61626c653a206e6577206f776e657220697320746865207a65726f206160008201527f6464726573730000000000000000000000000000000000000000000000000000602082015250565b6000611b22602683611ab5565b9150611b2d82611ac6565b604082019050919050565b60006020820190508181036000830152611b5181611b15565b9050919050565b7f4f776e61626c653a2063616c6c6572206973206e6f7420746865206f776e6572600082015250565b6000611b8e602083611ab5565b9150611b9982611b58565b602082019050919050565b60006020820190508181036000830152611bbd81611b81565b9050919050565b7f4e487b7100000000000000000000000000000000000000000000000000000000600052601160045260246000fd5b6000611bfe826117f2565b9150611c09836117f2565b9250828203905081811115611c2157611c20611bc4565b5b92915050565b7f4e487b7100000000000000000000000000000000000000000000000000000000600052603260045260246000fd5b7f4e487b7100000000000000000000000000000000000000000000000000000000600052603160045260246000fdfea264697066735822122011733e05e442e28bd160faea4cc56ec3ec34a954b341d70b2532d5047cc16bd464736f6c63430008100033",
  "deployedBytecode": "0x608060405234801561001057600080fd5b50600436106100a95760003560e01c80639f005920116100715780639f00592014610140578063da555e8b1461015c578063e79a198f1461018d578063f2fde38b14610197578063fc45f976146101b3578063fcb4888e146101cf576100a9565b80631aa3a008146100ae57806345b89fb1146100b857806365b26b5f146100e8578063715018a6146101185780638da5cb5b14610122575b600080fd5b6100b66101eb565b005b6100d260048036038101906100cd919061179b565b6105a3565b6040516100df91906117d7565b60405180910390f35b61010260048036038101906100fd9190611828565b6105d6565b60405161010f91906117d7565b60405180910390f35b610120610615565b005b61012a610629565b60405161013791906117d7565b60405180910390f35b61015a6004803603810190610155919061179b565b610652565b005b6101766004803603810190610171919061179b565b610a00565b604051610184929190611870565b60405180910390f35b610195610b74565b005b6101b160048036038101906101ac919061179b565b610eb4565b005b6101cd60048036038101906101c8919061179b565b610f37565b005b6101e960048036038101906101e4919061179b565b6111f2565b005b600280548060200260200160405190810160405280929190818152602001828054801561026d57602002820191906000526020600020905b8160009054906101000a900473ffffffffffffffffffffffffffffffffffffffff1673ffffffffffffffffffffffffffffffffffffffff1681526020019060010190808311610223575b505050505073__$0127e0816bbff20e825068c1b5c01f855f$__633da80d669091336040518363ffffffff1660e01b81526004016102ac929190611966565b602060405180830381865af41580156102c9573d6000803e3d6000fd5b505050506040513d601f19601f820116820180604052508101906102ed91906119c2565b610323576040517fafa6472c00000000000000000000000000000000000000000000000000000000815260040160405180910390fd5b60018054806020026020016040519081016040528092919081815260200182805480156103a557602002820191906000526020600020905b8160009054906101000a900473ffffffffffffffffffffffffffffffffffffffff1673ffffffffffffffffffffffffffffffffffffffff168152602001906001019080831161035b575b505050505073__$0127e0816bbff20e825068c1b5c01f855f$__633da80d669091336040518363ffffffff1660e01b81526004016103e4929190611966565b602060405180830381865af4158015610401573d6000803e3d6000fd5b505050506040513d601f19601f8201168201806040525081019061042591906119c2565b1561045c576040517f2784928f00000000000000000000000000000000000000000000000000000000815260040160405180910390fd5b6001339080600181540180825580915050600190039060005260206000200160009091909190916101000a81548173ffffffffffffffffffffffffffffffffffffffff021916908373ffffffffffffffffffffffffffffffffffffffff16021790555060003373ffffffffffffffffffffffffffffffffffffffff16634c051f146040518163ffffffff1660e01b8152600401602060405180830381865afa15801561050c573d6000803e3d6000fd5b505050506040513d601f19601f820116820180604052508101906105309190611a04565b90506003600581111561054657610545611a31565b5b3373ffffffffffffffffffffffffffffffffffffffff168273ffffffffffffffffffffffffffffffffffffffff167f327ed17c47df1d644d3374097f81f120a1633b66818319224cec38b9375be85460405160405180910390a450565b60036020528060005260406000206000915054906101000a900473ffffffffffffffffffffffffffffffffffffffff1681565b600281815481106105e657600080fd5b906000526020600020016000915054906101000a900473ffffffffffffffffffffffffffffffffffffffff1681565b61061d6114ee565b610627600061156c565b565b60008060009054906101000a900473ffffffffffffffffffffffffffffffffffffffff16905090565b61065a6114ee565b60028054806020026020016040519081016040528092919081815260200182805480156106dc57602002820191906000526020600020905b8160009054906101000a900473ffffffffffffffffffffffffffffffffffffffff1673ffffffffffffffffffffffffffffffffffffffff1681526020019060010190808311610692575b505050505073__$0127e0816bbff20e825068c1b5c01f855f$__633da80d669091836040518363ffffffff1660e01b815260040161071b929190611966565b602060405180830381865af4158015610738573d6000803e3d6000fd5b505050506040513d601f19601f8201168201806040525081019061075c91906119c2565b15610793576040517f0274f88000000000000000000000000000000000000000000000000000000000815260040160405180910390fd5b600080600180548060200260200160405190810160405280929190818152602001828054801561081857602002820191906000526020600020905b8160009054906101000a900473ffffffffffffffffffffffffffffffffffffffff1673ffffffffffffffffffffffffffffffffffffffff16815260200190600101908083116107ce575b505050505073__$0127e0816bbff20e825068c1b5c01f855f$__639fce5c8e9091856040518363ffffffff1660e01b8152600401610857929190611966565b6040805180830381865af4158015610873573d6000803e3d6000fd5b505050506040513d601f19601f820116820180604052508101906108979190611a75565b9150915081156108b6576108b581600161163090919063ffffffff16565b5b6002839080600181540180825580915050600190039060005260206000200160009091909190916101000a81548173ffffffffffffffffffffffffffffffffffffffff021916908373ffffffffffffffffffffffffffffffffffffffff16021790555060008373ffffffffffffffffffffffffffffffffffffffff16634c051f146040518163ffffffff1660e01b8152600401602060405180830381865afa158015610966573d6000803e3d6000fd5b505050506040513d601f19601f8201168201806040525081019061098a9190611a04565b9050600260058111156109a05761099f611a31565b5b8473ffffffffffffffffffffffffffffffffffffffff168273ffffffffffffffffffffffffffffffffffffffff167f327ed17c47df1d644d3374097f81f120a1633b66818319224cec38b9375be85460405160405180910390a450505050565b6000806000600360008573ffffffffffffffffffffffffffffffffffffffff1673ffffffffffffffffffffffffffffffffffffffff16815260200190815260200160002060009054906101000a900473ffffffffffffffffffffffffffffffffffffffff1690506002805480602002602001604051908101604052809291908181526020018280548015610ae957602002820191906000526020600020905b8160009054906101000a900473ffffffffffffffffffffffffffffffffffffffff1673ffffffffffffffffffffffffffffffffffffffff1681526020019060010190808311610a9f575b505050505073__$0127e0816bbff20e825068c1b5c01f855f$__633da80d669091836040518363ffffffff1660e01b8152600401610b28929190611966565b602060405180830381865af4158015610b45573d6000803e3d6000fd5b505050506040513d601f19601f82011682018060405250810190610b6991906119c2565b819250925050915091565b6002805480602002602001604051908101604052809291908181526020018280548015610bf657602002820191906000526020600020905b8160009054906101000a900473ffffffffffffffffffffffffffffffffffffffff1673ffffffffffffffffffffffffffffffffffffffff1681526020019060010190808311610bac575b505050505073__$0127e0816bbff20e825068c1b5c01f855f$__633da80d669091336040518363ffffffff1660e01b8152600401610c35929190611966565b602060405180830381865af4158015610c52573d6000803e3d6000fd5b505050506040513d601f19601f82011682018060405250810190610c7691906119c2565b610cac576040517fafa6472c00000000000000000000000000000000000000000000000000000000815260040160405180910390fd5b6000806002805480602002602001604051908101604052809291908181526020018280548015610d3157602002820191906000526020600020905b8160009054906101000a900473ffffffffffffffffffffffffffffffffffffffff1673ffffffffffffffffffffffffffffffffffffffff1681526020019060010190808311610ce7575b505050505073__$0127e0816bbff20e825068c1b5c01f855f$__639fce5c8e9091336040518363ffffffff1660e01b8152600401610d70929190611966565b6040805180830381865af4158015610d8c573d6000803e3d6000fd5b505050506040513d601f19601f82011682018060405250810190610db09190611a75565b915091508115610dcf57610dce81600261163090919063ffffffff16565b5b60003373ffffffffffffffffffffffffffffffffffffffff16634c051f146040518163ffffffff1660e01b8152600401602060405180830381865afa158015610e1c573d6000803e3d6000fd5b505050506040513d601f19601f82011682018060405250810190610e409190611a04565b9050600580811115610e5557610e54611a31565b5b3373ffffffffffffffffffffffffffffffffffffffff168273ffffffffffffffffffffffffffffffffffffffff167f327ed17c47df1d644d3374097f81f120a1633b66818319224cec38b9375be85460405160405180910390a4505050565b610ebc6114ee565b600073ffffffffffffffffffffffffffffffffffffffff168173ffffffffffffffffffffffffffffffffffffffff1603610f2b576040517f08c379a0000000000000000000000000000000000000000000000000000000008152600401610f2290611b38565b60405180910390fd5b610f348161156c565b50565b6002805480602002602001604051908101604052809291908181526020018280548015610fb957602002820191906000526020600020905b8160009054906101000a900473ffffffffffffffffffffffffffffffffffffffff1673ffffffffffffffffffffffffffffffffffffffff1681526020019060010190808311610f6f575b505050505073__$0127e0816bbff20e825068c1b5c01f855f$__633da80d669091336040518363ffffffff1660e01b8152600401610ff8929190611966565b602060405180830381865af4158015611015573d6000803e3d6000fd5b505050506040513d601f19601f8201168201806040525081019061103991906119c2565b61106f576040517fafa6472c00000000000000000000000000000000000000000000000000000000815260040160405180910390fd5b3373ffffffffffffffffffffffffffffffffffffffff16600360008373ffffffffffffffffffffffffffffffffffffffff1673ffffffffffffffffffffffffffffffffffffffff16815260200190815260200160002060009054906101000a900473ffffffffffffffffffffffffffffffffffffffff1673ffffffffffffffffffffffffffffffffffffffff1603611181576000600360008373ffffffffffffffffffffffffffffffffffffffff1673ffffffffffffffffffffffffffffffffffffffff16815260200190815260200160002060006101000a81548173ffffffffffffffffffffffffffffffffffffffff021916908373ffffffffffffffffffffffffffffffffffffffff1602179055505b6004600581111561119557611194611a31565b5b3373ffffffffffffffffffffffffffffffffffffffff168273ffffffffffffffffffffffffffffffffffffffff167f327ed17c47df1d644d3374097f81f120a1633b66818319224cec38b9375be85460405160405180910390a450565b600280548060200260200160405190810160405280929190818152602001828054801561127457602002820191906000526020600020905b8160009054906101000a900473ffffffffffffffffffffffffffffffffffffffff1673ffffffffffffffffffffffffffffffffffffffff168152602001906001019080831161122a575b505050505073__$0127e0816bbff20e825068c1b5c01f855f$__633da80d669091336040518363ffffffff1660e01b81526004016112b3929190611966565b602060405180830381865af41580156112d0573d6000803e3d6000fd5b505050506040513d601f19601f820116820180604052508101906112f491906119c2565b61132a576040517fafa6472c00000000000000000000000000000000000000000000000000000000815260040160405180910390fd5b60008061133683610a00565b91509150811561137d57806040517fb9a153c000000000000000000000000000000000000000000000000000000000815260040161137491906117d7565b60405180910390fd5b3373ffffffffffffffffffffffffffffffffffffffff1663a230c524846040518263ffffffff1660e01b81526004016113b691906117d7565b602060405180830381865afa1580156113d3573d6000803e3d6000fd5b505050506040513d601f19601f820116820180604052508101906113f791906119c2565b1561147b5733600360008573ffffffffffffffffffffffffffffffffffffffff1673ffffffffffffffffffffffffffffffffffffffff16815260200190815260200160002060006101000a81548173ffffffffffffffffffffffffffffffffffffffff021916908373ffffffffffffffffffffffffffffffffffffffff1602179055505b6001600581111561148f5761148e611a31565b5b3373ffffffffffffffffffffffffffffffffffffffff168473ffffffffffffffffffffffffffffffffffffffff167f327ed17c47df1d644d3374097f81f120a1633b66818319224cec38b9375be85460405160405180910390a4505050565b6114f6611730565b73ffffffffffffffffffffffffffffffffffffffff16611514610629565b73ffffffffffffffffffffffffffffffffffffffff161461156a576040517f08c379a000000000000000000000000000000000000000000000000000000000815260040161156190611ba4565b60405180910390fd5b565b60008060009054906101000a900473ffffffffffffffffffffffffffffffffffffffff169050816000806101000a81548173ffffffffffffffffffffffffffffffffffffffff021916908373ffffffffffffffffffffffffffffffffffffffff1602179055508173ffffffffffffffffffffffffffffffffffffffff168173ffffffffffffffffffffffffffffffffffffffff167f8be0079c531659141344cd1fd0a4f28419497f9722a3daafe3b4186f6b6457e060405160405180910390a35050565b818054905081101561172c57816001838054905061164e9190611bf3565b8154811061165f5761165e611c27565b5b9060005260206000200160009054906101000a900473ffffffffffffffffffffffffffffffffffffffff1682828154811061169d5761169c611c27565b5b9060005260206000200160006101000a81548173ffffffffffffffffffffffffffffffffffffffff021916908373ffffffffffffffffffffffffffffffffffffffff160217905550818054806116f6576116f5611c56565b5b6001900381819060005260206000200160006101000a81549073ffffffffffffffffffffffffffffffffffffffff021916905590555b5050565b600033905090565b600080fd5b600073ffffffffffffffffffffffffffffffffffffffff82169050919050565b60006117688261173d565b9050919050565b6117788161175d565b811461178357600080fd5b50565b6000813590506117958161176f565b92915050565b6000602082840312156117b1576117b0611738565b5b60006117bf84828501611786565b91505092915050565b6117d18161175d565b82525050565b60006020820190506117ec60008301846117c8565b92915050565b6000819050919050565b611805816117f2565b811461181057600080fd5b50565b600081359050611822816117fc565b92915050565b60006020828403121561183e5761183d611738565b5b600061184c84828501611813565b91505092915050565b60008115159050919050565b61186a81611855565b82525050565b60006040820190506118856000830185611861565b61189260208301846117c8565b9392505050565b600081519050919050565b600082825260208201905092915050565b6000819050602082019050919050565b6118ce8161175d565b82525050565b60006118e083836118c5565b60208301905092915050565b6000602082019050919050565b600061190482611899565b61190e81856118a4565b9350611919836118b5565b8060005b8381101561194a57815161193188826118d4565b975061193c836118ec565b92505060018101905061191d565b5085935050505092915050565b6119608161175d565b82525050565b6000604082019050818103600083015261198081856118f9565b905061198f6020830184611957565b9392505050565b61199f81611855565b81146119aa57600080fd5b50565b6000815190506119bc81611996565b92915050565b6000602082840312156119d8576119d7611738565b5b60006119e6848285016119ad565b91505092915050565b6000815190506119fe8161176f565b92915050565b600060208284031215611a1a57611a19611738565b5b6000611a28848285016119ef565b91505092915050565b7f4e487b7100000000000000000000000000000000000000000000000000000000600052602160045260246000fd5b600081519050611a6f816117fc565b92915050565b60008060408385031215611a8c57611a8b611738565b5b6000611a9a858286016119ad565b9250506020611aab85828601611a60565b9150509250929050565b600082825260208201905092915050565b7f4f776e61626c653a206e6577206f776e657220697320746865207a65726f206160008201527f6464726573730000000000000000000000000000000000000000000000000000602082015250565b6000611b22602683611ab5565b9150611b2d82611ac6565b604082019050919050565b60006020820190508181036000830152611b5181611b15565b9050919050565b7f4f776e61626c653a2063616c6c6572206973206e6f7420746865206f776e6572600082015250565b6000611b8e602083611ab5565b9150611b9982611b58565b602082019050919050565b60006020820190508181036000830152611bbd81611b81565b9050919050565b7f4e487b7100000000000000000000000000000000000000000000000000000000600052601160045260246000fd5b6000611bfe826117f2565b9150611c09836117f2565b9250828203905081811115611c2157611c20611bc4565b5b92915050565b7f4e487b7100000000000000000000000000000000000000000000000000000000600052603260045260246000fd5b7f4e487b7100000000000000000000000000000000000000000000000000000000600052603160045260246000fdfea264697066735822122011733e05e442e28bd160faea4cc56ec3ec34a954b341d70b2532d5047cc16bd464736f6c63430008100033",
  "libraries": {
    "AddressArrayUtils": "0xfDFf39F9E06dFEBd1d9C4592b600c91211C3f888"
  },
  "devdoc": {
    "kind": "dev",
    "methods": {
      "owner()": {
        "details": "Returns the address of the current owner."
      },
      "renounceOwnership()": {
        "details": "Leaves the contract without owner. It will not be possible to call `onlyOwner` functions anymore. Can only be called by the current owner. NOTE: Renouncing ownership will leave the contract without an owner, thereby removing any functionality that is only available to the owner."
      },
      "transferOwnership(address)": {
        "details": "Transfers ownership of the contract to a new account (`newOwner`). Can only be called by the current owner."
      }
    },
    "version": 1
  },
  "userdoc": {
    "kind": "user",
    "methods": {},
    "version": 1
  },
  "storageLayout": {
    "storage": [
      {
        "astId": 396,
        "contract": "contracts/GuildRegistry.sol:GuildRegistry",
        "label": "_owner",
        "offset": 0,
        "slot": "0",
        "type": "t_address"
      },
      {
        "astId": 10407,
        "contract": "contracts/GuildRegistry.sol:GuildRegistry",
        "label": "s_foundingRequests",
        "offset": 0,
        "slot": "1",
        "type": "t_array(t_address)dyn_storage"
      },
      {
        "astId": 10410,
        "contract": "contracts/GuildRegistry.sol:GuildRegistry",
        "label": "s_guilds",
        "offset": 0,
        "slot": "2",
        "type": "t_array(t_address)dyn_storage"
      },
      {
        "astId": 10414,
        "contract": "contracts/GuildRegistry.sol:GuildRegistry",
        "label": "s_members",
        "offset": 0,
        "slot": "3",
        "type": "t_mapping(t_address,t_address)"
      },
      {
        "astId": 10417,
        "contract": "contracts/GuildRegistry.sol:GuildRegistry",
        "label": "s_reputation",
        "offset": 0,
        "slot": "4",
        "type": "t_uint256"
      }
    ],
    "types": {
      "t_address": {
        "encoding": "inplace",
        "label": "address",
        "numberOfBytes": "20"
      },
      "t_array(t_address)dyn_storage": {
        "base": "t_address",
        "encoding": "dynamic_array",
        "label": "address[]",
        "numberOfBytes": "32"
      },
      "t_mapping(t_address,t_address)": {
        "encoding": "mapping",
        "key": "t_address",
        "label": "mapping(address => address)",
        "numberOfBytes": "32",
        "value": "t_address"
      },
      "t_uint256": {
        "encoding": "inplace",
        "label": "uint256",
        "numberOfBytes": "32"
      }
    }
  }
}