{
  "address": "0x7Ace3B61664b992ae7a1122620fD0dEF85a6857c",
  "abi": [
    {
      "inputs": [
        {
          "internalType": "uint256[6]",
          "name": "stats",
          "type": "uint256[6]"
        },
        {
          "internalType": "uint256[7]",
          "name": "attributes",
          "type": "uint256[7]"
        }
      ],
      "name": "calculateMagicDamage",
      "outputs": [
        {
          "internalType": "uint256",
          "name": "",
          "type": "uint256"
        }
      ],
      "stateMutability": "pure",
      "type": "function"
    },
    {
      "inputs": [
        {
          "internalType": "uint256[6]",
          "name": "stats",
          "type": "uint256[6]"
        },
        {
          "internalType": "uint256[7]",
          "name": "attributes",
          "type": "uint256[7]"
        }
      ],
      "name": "calculateMagicDefense",
      "outputs": [
        {
          "internalType": "uint256",
          "name": "",
          "type": "uint256"
        }
      ],
      "stateMutability": "pure",
      "type": "function"
    },
    {
      "inputs": [
        {
          "internalType": "uint256[6]",
          "name": "stats",
          "type": "uint256[6]"
        },
        {
          "internalType": "uint256[7]",
          "name": "attributes",
          "type": "uint256[7]"
        }
      ],
      "name": "calculatePhysicalDamage",
      "outputs": [
        {
          "internalType": "uint256",
          "name": "",
          "type": "uint256"
        }
      ],
      "stateMutability": "pure",
      "type": "function"
    },
    {
      "inputs": [
        {
          "internalType": "uint256[6]",
          "name": "stats",
          "type": "uint256[6]"
        },
        {
          "internalType": "uint256[7]",
          "name": "attributes",
          "type": "uint256[7]"
        }
      ],
      "name": "calculatePhysicalDefense",
      "outputs": [
        {
          "internalType": "uint256",
          "name": "",
          "type": "uint256"
        }
      ],
      "stateMutability": "pure",
      "type": "function"
    }
  ],
  "transactionHash": "0x665d3520589ad9557cafe98340e2054b6670d328d6f8f700c0287ab25caade20",
  "args": [],
  "numDeployments": 1,
  "solcInputHash": "f51cf4fddb31e9227b5ff158431bd333",
  "bytecode": "0x61119b610053600b82828239805160001a607314610046577f4e487b7100000000000000000000000000000000000000000000000000000000600052600060045260246000fd5b30600052607381538281f3fe73000000000000000000000000000000000000000030146080604052600436106100565760003560e01c8063091b28401461005b5780632dff70ec1461008b57806361a6d61e146100bb57806378e11c5e146100eb575b600080fd5b61007560048036038101906100709190610d28565b61011b565b6040516100829190610d82565b60405180910390f35b6100a560048036038101906100a09190610d28565b61013c565b6040516100b29190610d82565b60405180910390f35b6100d560048036038101906100d09190610d28565b61015d565b6040516100e29190610d82565b60405180910390f35b61010560048036038101906101009190610d28565b61017e565b6040516101129190610d82565b60405180910390f35b6000806101278361019f565b905061013384826102e5565b91505092915050565b6000806101488361019f565b905061015484826105a8565b91505092915050565b6000806101698361019f565b9050610175848261077e565b91505092915050565b60008061018a8361019f565b90506101968482610952565b91505092915050565b6101a7610c56565b60006040518060400160405280846004600781106101c8576101c7610d9d565b5b60200201358152602001846005600781106101e6576101e5610d9d565b5b602002013581525090506040518060c001604052808460006007811061020f5761020e610d9d565b5b602002013581526020018460016007811061022d5761022c610d9d565b5b602002013581526020018460026007811061024b5761024a610d9d565b5b6020020135600581111561026257610261610dcc565b5b600581111561027457610273610dcc565b5b81526020018460036007811061028d5761028c610d9d565b5b6020020135600e8111156102a4576102a3610dcc565b5b600e8111156102b6576102b5610dcc565b5b8152602001828152602001846006600781106102d5576102d4610d9d565b5b6020020135815250915050919050565b600080731380Ba5AF0799da9eD4f1072929bdC55Cb899BD563fa5ab32e846040015185606001516040518363ffffffff1660e01b8152600401610329929190610e8b565b6040805180830381865af4158015610345573d6000803e3d6000fd5b505050506040513d601f19601f82011682018060405250810190610369919061101b565b90506000846003600681111561038257610381610dcc565b5b6006811061039357610392610d9d565b5b60200201359050600085600260068111156103b1576103b0610dcc565b5b600681106103c2576103c1610d9d565b5b602002013590506000600260068111156103df576103de610dcc565b5b846000600281106103f3576103f2610d9d565b5b6020020151600681111561040a57610409610dcc565b5b14610462576002600681111561042357610422610dcc565b5b8460016002811061043757610436610d9d565b5b6020020151600681111561044e5761044d610dcc565b5b1461045a57600161045d565b60025b610465565b60045b60ff1690506000600360068111156104805761047f610dcc565b5b8560006002811061049457610493610d9d565b5b602002015160068111156104ab576104aa610dcc565b5b1461050357600360068111156104c4576104c3610dcc565b5b856001600281106104d8576104d7610d9d565b5b602002015160068111156104ef576104ee610dcc565b5b146104fb5760006104fe565b60015b610506565b60025b60ff16905060006105208286610c1490919063ffffffff16565b905060006105378486610c1490919063ffffffff16565b90506105998161058b8461057d8d6000015161056f8b61056160048f610c2a90919063ffffffff16565b610c4090919063ffffffff16565b610c1490919063ffffffff16565b610c4090919063ffffffff16565b610c4090919063ffffffff16565b97505050505050505092915050565b600080731380Ba5AF0799da9eD4f1072929bdC55Cb899BD563fa5ab32e846040015185606001516040518363ffffffff1660e01b81526004016105ec929190610e8b565b6040805180830381865af4158015610608573d6000803e3d6000fd5b505050506040513d601f19601f8201168201806040525081019061062c919061101b565b90506000846003600681111561064557610644610dcc565b5b6006811061065657610655610d9d565b5b6020020135905060006003600681111561067357610672610dcc565b5b8360006002811061068757610686610d9d565b5b6020020151600681111561069e5761069d610dcc565b5b146106aa5760016106ad565b60035b60ff1690506000600360068111156106c8576106c7610dcc565b5b846001600281106106dc576106db610d9d565b5b602002015160068111156106f3576106f2610dcc565b5b146106ff576001610702565b60025b60ff169050600061071c8385610c1490919063ffffffff16565b905060006107338386610c1490919063ffffffff16565b905061077081610762846107548c600001518a610c1490919063ffffffff16565b610c4090919063ffffffff16565b610c4090919063ffffffff16565b965050505050505092915050565b600080731380Ba5AF0799da9eD4f1072929bdC55Cb899BD563fa5ab32e846040015185606001516040518363ffffffff1660e01b81526004016107c2929190610e8b565b6040805180830381865af41580156107de573d6000803e3d6000fd5b505050506040513d601f19601f82011682018060405250810190610802919061101b565b90506000846000600681111561081b5761081a610dcc565b5b6006811061082c5761082b610d9d565b5b60200201359050600080600681111561084857610847610dcc565b5b8360006002811061085c5761085b610d9d565b5b6020020151600681111561087357610872610dcc565b5b1461087f576001610882565b60035b60ff169050600080600681111561089c5761089b610dcc565b5b846001600281106108b0576108af610d9d565b5b602002015160068111156108c7576108c6610dcc565b5b146108d35760016108d6565b60025b60ff16905060006108f08385610c1490919063ffffffff16565b905060006109078386610c1490919063ffffffff16565b905061094481610936846109288c600001518a610c1490919063ffffffff16565b610c4090919063ffffffff16565b610c4090919063ffffffff16565b965050505050505092915050565b600080731380Ba5AF0799da9eD4f1072929bdC55Cb899BD563fa5ab32e846040015185606001516040518363ffffffff1660e01b8152600401610996929190610e8b565b6040805180830381865af41580156109b2573d6000803e3d6000fd5b505050506040513d601f19601f820116820180604052508101906109d6919061101b565b9050600084600060068111156109ef576109ee610dcc565b5b60068110610a00576109ff610d9d565b5b6020020135905060008560026006811115610a1e57610a1d610dcc565b5b60068110610a2f57610a2e610d9d565b5b60200201359050600060026006811115610a4c57610a4b610dcc565b5b84600060028110610a6057610a5f610d9d565b5b60200201516006811115610a7757610a76610dcc565b5b14610acf5760026006811115610a9057610a8f610dcc565b5b84600160028110610aa457610aa3610d9d565b5b60200201516006811115610abb57610aba610dcc565b5b14610ac7576001610aca565b60025b610ad2565b60045b60ff1690506000806006811115610aec57610aeb610dcc565b5b85600060028110610b0057610aff610d9d565b5b60200201516006811115610b1757610b16610dcc565b5b14610b6f5760006006811115610b3057610b2f610dcc565b5b85600160028110610b4457610b43610d9d565b5b60200201516006811115610b5b57610b5a610dcc565b5b14610b67576000610b6a565b60015b610b72565b60025b60ff1690506000610b8c8286610c1490919063ffffffff16565b90506000610ba38486610c1490919063ffffffff16565b9050610c0581610bf784610be98d60000151610bdb8b610bcd60048f610c2a90919063ffffffff16565b610c4090919063ffffffff16565b610c1490919063ffffffff16565b610c4090919063ffffffff16565b610c4090919063ffffffff16565b97505050505050505092915050565b60008183610c229190611077565b905092915050565b60008183610c389190611100565b905092915050565b60008183610c4e9190611131565b905092915050565b6040518060c00160405280600081526020016000815260200160006005811115610c8357610c82610dcc565b5b81526020016000600e811115610c9c57610c9b610dcc565b5b8152602001610ca9610cb6565b8152602001600081525090565b604051806040016040528060008152602001600081525090565b6000604051905090565b600080fd5b600080fd5b600081905082602060060282011115610d0057610cff610cdf565b5b92915050565b600081905082602060070282011115610d2257610d21610cdf565b5b92915050565b6000806101a08385031215610d4057610d3f610cda565b5b6000610d4e85828601610ce4565b92505060c0610d5f85828601610d06565b9150509250929050565b6000819050919050565b610d7c81610d69565b82525050565b6000602082019050610d976000830184610d73565b92915050565b7f4e487b7100000000000000000000000000000000000000000000000000000000600052603260045260246000fd5b7f4e487b7100000000000000000000000000000000000000000000000000000000600052602160045260246000fd5b60068110610e0c57610e0b610dcc565b5b50565b6000819050610e1d82610dfb565b919050565b6000610e2d82610e0f565b9050919050565b610e3d81610e22565b82525050565b600f8110610e5457610e53610dcc565b5b50565b6000819050610e6582610e43565b919050565b6000610e7582610e57565b9050919050565b610e8581610e6a565b82525050565b6000604082019050610ea06000830185610e34565b610ead6020830184610e7c565b9392505050565b600080fd5b6000601f19601f8301169050919050565b7f4e487b7100000000000000000000000000000000000000000000000000000000600052604160045260246000fd5b610f0282610eb9565b810181811067ffffffffffffffff82111715610f2157610f20610eca565b5b80604052505050565b6000610f34610cd0565b9050610f408282610ef9565b919050565b600067ffffffffffffffff821115610f6057610f5f610eca565b5b602082029050919050565b60078110610f7857600080fd5b50565b600081519050610f8a81610f6b565b92915050565b6000610fa3610f9e84610f45565b610f2a565b90508060208402830185811115610fbd57610fbc610cdf565b5b835b81811015610fe65780610fd28882610f7b565b845260208401935050602081019050610fbf565b5050509392505050565b600082601f83011261100557611004610eb4565b5b6002611012848285610f90565b91505092915050565b60006040828403121561103157611030610cda565b5b600061103f84828501610ff0565b91505092915050565b7f4e487b7100000000000000000000000000000000000000000000000000000000600052601160045260246000fd5b600061108282610d69565b915061108d83610d69565b9250817fffffffffffffffffffffffffffffffffffffffffffffffffffffffffffffffff04831182151516156110c6576110c5611048565b5b828202905092915050565b7f4e487b7100000000000000000000000000000000000000000000000000000000600052601260045260246000fd5b600061110b82610d69565b915061111683610d69565b925082611126576111256110d1565b5b828204905092915050565b600061113c82610d69565b915061114783610d69565b925082820190508082111561115f5761115e611048565b5b9291505056fea2646970667358221220a63a17f5b463ecdcc7cca56157267d64564528aa37a8e9940ac501a3c497db7f64736f6c63430008100033",
  "deployedBytecode": "0x73000000000000000000000000000000000000000030146080604052600436106100565760003560e01c8063091b28401461005b5780632dff70ec1461008b57806361a6d61e146100bb57806378e11c5e146100eb575b600080fd5b61007560048036038101906100709190610d28565b61011b565b6040516100829190610d82565b60405180910390f35b6100a560048036038101906100a09190610d28565b61013c565b6040516100b29190610d82565b60405180910390f35b6100d560048036038101906100d09190610d28565b61015d565b6040516100e29190610d82565b60405180910390f35b61010560048036038101906101009190610d28565b61017e565b6040516101129190610d82565b60405180910390f35b6000806101278361019f565b905061013384826102e5565b91505092915050565b6000806101488361019f565b905061015484826105a8565b91505092915050565b6000806101698361019f565b9050610175848261077e565b91505092915050565b60008061018a8361019f565b90506101968482610952565b91505092915050565b6101a7610c56565b60006040518060400160405280846004600781106101c8576101c7610d9d565b5b60200201358152602001846005600781106101e6576101e5610d9d565b5b602002013581525090506040518060c001604052808460006007811061020f5761020e610d9d565b5b602002013581526020018460016007811061022d5761022c610d9d565b5b602002013581526020018460026007811061024b5761024a610d9d565b5b6020020135600581111561026257610261610dcc565b5b600581111561027457610273610dcc565b5b81526020018460036007811061028d5761028c610d9d565b5b6020020135600e8111156102a4576102a3610dcc565b5b600e8111156102b6576102b5610dcc565b5b8152602001828152602001846006600781106102d5576102d4610d9d565b5b6020020135815250915050919050565b60008073__$a2c259faa3a71ee8e08279c7fdb63b5567$__63fa5ab32e846040015185606001516040518363ffffffff1660e01b8152600401610329929190610e8b565b6040805180830381865af4158015610345573d6000803e3d6000fd5b505050506040513d601f19601f82011682018060405250810190610369919061101b565b90506000846003600681111561038257610381610dcc565b5b6006811061039357610392610d9d565b5b60200201359050600085600260068111156103b1576103b0610dcc565b5b600681106103c2576103c1610d9d565b5b602002013590506000600260068111156103df576103de610dcc565b5b846000600281106103f3576103f2610d9d565b5b6020020151600681111561040a57610409610dcc565b5b14610462576002600681111561042357610422610dcc565b5b8460016002811061043757610436610d9d565b5b6020020151600681111561044e5761044d610dcc565b5b1461045a57600161045d565b60025b610465565b60045b60ff1690506000600360068111156104805761047f610dcc565b5b8560006002811061049457610493610d9d565b5b602002015160068111156104ab576104aa610dcc565b5b1461050357600360068111156104c4576104c3610dcc565b5b856001600281106104d8576104d7610d9d565b5b602002015160068111156104ef576104ee610dcc565b5b146104fb5760006104fe565b60015b610506565b60025b60ff16905060006105208286610c1490919063ffffffff16565b905060006105378486610c1490919063ffffffff16565b90506105998161058b8461057d8d6000015161056f8b61056160048f610c2a90919063ffffffff16565b610c4090919063ffffffff16565b610c1490919063ffffffff16565b610c4090919063ffffffff16565b610c4090919063ffffffff16565b97505050505050505092915050565b60008073__$a2c259faa3a71ee8e08279c7fdb63b5567$__63fa5ab32e846040015185606001516040518363ffffffff1660e01b81526004016105ec929190610e8b565b6040805180830381865af4158015610608573d6000803e3d6000fd5b505050506040513d601f19601f8201168201806040525081019061062c919061101b565b90506000846003600681111561064557610644610dcc565b5b6006811061065657610655610d9d565b5b6020020135905060006003600681111561067357610672610dcc565b5b8360006002811061068757610686610d9d565b5b6020020151600681111561069e5761069d610dcc565b5b146106aa5760016106ad565b60035b60ff1690506000600360068111156106c8576106c7610dcc565b5b846001600281106106dc576106db610d9d565b5b602002015160068111156106f3576106f2610dcc565b5b146106ff576001610702565b60025b60ff169050600061071c8385610c1490919063ffffffff16565b905060006107338386610c1490919063ffffffff16565b905061077081610762846107548c600001518a610c1490919063ffffffff16565b610c4090919063ffffffff16565b610c4090919063ffffffff16565b965050505050505092915050565b60008073__$a2c259faa3a71ee8e08279c7fdb63b5567$__63fa5ab32e846040015185606001516040518363ffffffff1660e01b81526004016107c2929190610e8b565b6040805180830381865af41580156107de573d6000803e3d6000fd5b505050506040513d601f19601f82011682018060405250810190610802919061101b565b90506000846000600681111561081b5761081a610dcc565b5b6006811061082c5761082b610d9d565b5b60200201359050600080600681111561084857610847610dcc565b5b8360006002811061085c5761085b610d9d565b5b6020020151600681111561087357610872610dcc565b5b1461087f576001610882565b60035b60ff169050600080600681111561089c5761089b610dcc565b5b846001600281106108b0576108af610d9d565b5b602002015160068111156108c7576108c6610dcc565b5b146108d35760016108d6565b60025b60ff16905060006108f08385610c1490919063ffffffff16565b905060006109078386610c1490919063ffffffff16565b905061094481610936846109288c600001518a610c1490919063ffffffff16565b610c4090919063ffffffff16565b610c4090919063ffffffff16565b965050505050505092915050565b60008073__$a2c259faa3a71ee8e08279c7fdb63b5567$__63fa5ab32e846040015185606001516040518363ffffffff1660e01b8152600401610996929190610e8b565b6040805180830381865af41580156109b2573d6000803e3d6000fd5b505050506040513d601f19601f820116820180604052508101906109d6919061101b565b9050600084600060068111156109ef576109ee610dcc565b5b60068110610a00576109ff610d9d565b5b6020020135905060008560026006811115610a1e57610a1d610dcc565b5b60068110610a2f57610a2e610d9d565b5b60200201359050600060026006811115610a4c57610a4b610dcc565b5b84600060028110610a6057610a5f610d9d565b5b60200201516006811115610a7757610a76610dcc565b5b14610acf5760026006811115610a9057610a8f610dcc565b5b84600160028110610aa457610aa3610d9d565b5b60200201516006811115610abb57610aba610dcc565b5b14610ac7576001610aca565b60025b610ad2565b60045b60ff1690506000806006811115610aec57610aeb610dcc565b5b85600060028110610b0057610aff610d9d565b5b60200201516006811115610b1757610b16610dcc565b5b14610b6f5760006006811115610b3057610b2f610dcc565b5b85600160028110610b4457610b43610d9d565b5b60200201516006811115610b5b57610b5a610dcc565b5b14610b67576000610b6a565b60015b610b72565b60025b60ff1690506000610b8c8286610c1490919063ffffffff16565b90506000610ba38486610c1490919063ffffffff16565b9050610c0581610bf784610be98d60000151610bdb8b610bcd60048f610c2a90919063ffffffff16565b610c4090919063ffffffff16565b610c1490919063ffffffff16565b610c4090919063ffffffff16565b610c4090919063ffffffff16565b97505050505050505092915050565b60008183610c229190611077565b905092915050565b60008183610c389190611100565b905092915050565b60008183610c4e9190611131565b905092915050565b6040518060c00160405280600081526020016000815260200160006005811115610c8357610c82610dcc565b5b81526020016000600e811115610c9c57610c9b610dcc565b5b8152602001610ca9610cb6565b8152602001600081525090565b604051806040016040528060008152602001600081525090565b6000604051905090565b600080fd5b600080fd5b600081905082602060060282011115610d0057610cff610cdf565b5b92915050565b600081905082602060070282011115610d2257610d21610cdf565b5b92915050565b6000806101a08385031215610d4057610d3f610cda565b5b6000610d4e85828601610ce4565b92505060c0610d5f85828601610d06565b9150509250929050565b6000819050919050565b610d7c81610d69565b82525050565b6000602082019050610d976000830184610d73565b92915050565b7f4e487b7100000000000000000000000000000000000000000000000000000000600052603260045260246000fd5b7f4e487b7100000000000000000000000000000000000000000000000000000000600052602160045260246000fd5b60068110610e0c57610e0b610dcc565b5b50565b6000819050610e1d82610dfb565b919050565b6000610e2d82610e0f565b9050919050565b610e3d81610e22565b82525050565b600f8110610e5457610e53610dcc565b5b50565b6000819050610e6582610e43565b919050565b6000610e7582610e57565b9050919050565b610e8581610e6a565b82525050565b6000604082019050610ea06000830185610e34565b610ead6020830184610e7c565b9392505050565b600080fd5b6000601f19601f8301169050919050565b7f4e487b7100000000000000000000000000000000000000000000000000000000600052604160045260246000fd5b610f0282610eb9565b810181811067ffffffffffffffff82111715610f2157610f20610eca565b5b80604052505050565b6000610f34610cd0565b9050610f408282610ef9565b919050565b600067ffffffffffffffff821115610f6057610f5f610eca565b5b602082029050919050565b60078110610f7857600080fd5b50565b600081519050610f8a81610f6b565b92915050565b6000610fa3610f9e84610f45565b610f2a565b90508060208402830185811115610fbd57610fbc610cdf565b5b835b81811015610fe65780610fd28882610f7b565b845260208401935050602081019050610fbf565b5050509392505050565b600082601f83011261100557611004610eb4565b5b6002611012848285610f90565b91505092915050565b60006040828403121561103157611030610cda565b5b600061103f84828501610ff0565b91505092915050565b7f4e487b7100000000000000000000000000000000000000000000000000000000600052601160045260246000fd5b600061108282610d69565b915061108d83610d69565b9250817fffffffffffffffffffffffffffffffffffffffffffffffffffffffffffffffff04831182151516156110c6576110c5611048565b5b828202905092915050565b7f4e487b7100000000000000000000000000000000000000000000000000000000600052601260045260246000fd5b600061110b82610d69565b915061111683610d69565b925082611126576111256110d1565b5b828204905092915050565b600061113c82610d69565b915061114783610d69565b925082820190508082111561115f5761115e611048565b5b9291505056fea2646970667358221220a63a17f5b463ecdcc7cca56157267d64564528aa37a8e9940ac501a3c497db7f64736f6c63430008100033",
  "libraries": {
    "ClassLibrary": "0x1380Ba5AF0799da9eD4f1072929bdC55Cb899BD5"
  },
  "devdoc": {
    "kind": "dev",
    "methods": {},
    "version": 1
  },
  "userdoc": {
    "kind": "user",
    "methods": {},
    "version": 1
  },
  "storageLayout": {
    "storage": [],
    "types": null
  }
}