{
  "address": "0xA3E711529A3155Fb608C73Bb4321886fac0A4c92",
  "abi": [
    {
      "inputs": [
        {
          "internalType": "uint256[]",
          "name": "array",
          "type": "uint256[]"
        },
        {
          "internalType": "uint256",
          "name": "n",
          "type": "uint256"
        }
      ],
      "name": "contains",
      "outputs": [
        {
          "internalType": "bool",
          "name": "",
          "type": "bool"
        }
      ],
      "stateMutability": "pure",
      "type": "function"
    },
    {
      "inputs": [
        {
          "internalType": "uint256[]",
          "name": "array",
          "type": "uint256[]"
        }
      ],
      "name": "sum",
      "outputs": [
        {
          "internalType": "uint256",
          "name": "",
          "type": "uint256"
        }
      ],
      "stateMutability": "pure",
      "type": "function"
    }
  ],
  "transactionHash": "0x918b7c7e03befbca155d2e9edc45a5974d6cd07d07c66c7db6e22d6898cadcd3",
  "args": [],
  "numDeployments": 1,
  "solcInputHash": "5b4ae802e7901abd1e79953ce8324996",
  "bytecode": "0x610456610053600b82828239805160001a607314610046577f4e487b7100000000000000000000000000000000000000000000000000000000600052600060045260246000fd5b30600052607381538281f3fe73000000000000000000000000000000000000000030146080604052600436106100405760003560e01c80630194db8e14610045578063b32b8e2c14610075575b600080fd5b61005f600480360381019061005a91906102ec565b6100a5565b60405161006c9190610344565b60405180910390f35b61008f600480360381019061008a919061035f565b6100ee565b60405161009c91906103d6565b60405180910390f35b6000806000905060005b83518110156100e4578381815181106100cb576100ca6103f1565b5b60200260200101518201915080806001019150506100af565b5080915050919050565b600080600090505b835181101561013d5782848280600101935081518110610119576101186103f1565b5b602002602001015103610130576001915050610143565b80806001019150506100f6565b50600090505b92915050565b6000604051905090565b600080fd5b600080fd5b600080fd5b6000601f19601f8301169050919050565b7f4e487b7100000000000000000000000000000000000000000000000000000000600052604160045260246000fd5b6101ab82610162565b810181811067ffffffffffffffff821117156101ca576101c9610173565b5b80604052505050565b60006101dd610149565b90506101e982826101a2565b919050565b600067ffffffffffffffff82111561020957610208610173565b5b602082029050602081019050919050565b600080fd5b6000819050919050565b6102328161021f565b811461023d57600080fd5b50565b60008135905061024f81610229565b92915050565b6000610268610263846101ee565b6101d3565b9050808382526020820190506020840283018581111561028b5761028a61021a565b5b835b818110156102b457806102a08882610240565b84526020840193505060208101905061028d565b5050509392505050565b600082601f8301126102d3576102d261015d565b5b81356102e3848260208601610255565b91505092915050565b60006020828403121561030257610301610153565b5b600082013567ffffffffffffffff8111156103205761031f610158565b5b61032c848285016102be565b91505092915050565b61033e8161021f565b82525050565b60006020820190506103596000830184610335565b92915050565b6000806040838503121561037657610375610153565b5b600083013567ffffffffffffffff81111561039457610393610158565b5b6103a0858286016102be565b92505060206103b185828601610240565b9150509250929050565b60008115159050919050565b6103d0816103bb565b82525050565b60006020820190506103eb60008301846103c7565b92915050565b7f4e487b7100000000000000000000000000000000000000000000000000000000600052603260045260246000fdfea2646970667358221220af3edd2c6d6c00af947675ee97a8130eb369d142e62c9b5232b1ccdbbb237a9d64736f6c63430008110033",
  "devdoc": {
    "kind": "dev",
    "methods": {},
    "version": 1
  },
  "userdoc": {
    "kind": "user",
    "methods": {},
    "version": 1
  },
  "storageLayout": {
    "storage": [],
    "types": null
  }
}